:100000000C943E100C945B100C945B100C945B10E1
:100010000C945B100C945B100C945B100C945D10B2
:100020000C945B100C945B100C945B100C945B10A4
:100030000C945B100C945B100C945B100C945B1094
:100040000C945B100C945B100C945B100C945B1084
:100050000C945B100C945B100C945B100C945B1074
:100060000C945B100C945B106E616E00696E660000
:1000700000407A10F35A00A0724E18090010A5D45F
:10008000E80000E87648170000E40B54020000CABC
:100090009A3B000000E1F505000080969800000002
:1000A00040420F000000A086010000001027000061
:1000B0000000E803000000006400000000000A00E7
:1000C000000000000100000000002C76D888DC67EA
:1000D0004F0823DFC1DFAE59E1B1B796E5E3E45342
:1000E000C63AE651997696E8E6C28426EB898C9B5F
:1000F00062ED407C6FFCEFBC9C9F40F2BAA56FA5FF
:10010000F490055A2AF75C936B6CF9676DC11BFC80
:10011000E0E40D47FEF520E6B500D0ED902E03009B
:10012000943577050080841E080000204E0A0000E8
:1001300000C80C333333330F986E12831141EF8DA7
:100140002114893BE65516CFFEE6DB18D1844B38E7
:100150001BF77C1D901DA4BBE424203284725E2218
:100160008100C9F124ECA1E53D27000000009F0BB0
:1001700087E4000064ED02E3790CBAEB000054213F
:10018000F60E8B140000C30DC80DF911A31603D889
:10019000C0F0DE1071160000BB161C0C2EEF3010E4
:1001A000A1F6000000000000FEF100005F10190F32
:1001B000000000001B0F0000EE197D12000000007F
:1001C0004E200000000083EEC9E29E0A0000CFE747
:1001D00000007DE30EE40000BF1F0000501637E969
:1001E000831CCBECF2127FE7CE0E49E92119DC0922
:1001F000E6F18AF2C7E6000000002F0E00000000C2
:10020000000000005EEF8F1100005BED9F0D00000D
:100210000000000000000000F1F67F17B012D916B0
:1002200087100000BE11B310000067E7EDF5C3149E
:100230004AE31710000035F5B41AF60C0000000070
:1002400066EB0000321900004A0DD6E6000F47EABF
:100250000000F1F066F300000000F1F3000029F067
:10026000A8ED0000000063EF5B0D0000E60F0BF34C
:10027000DFE80000000000005E0D0E12000000002C
:1002800000004DEC5DEB1BE9191400000000F9EED5
:10029000940E9DEFA10E0000271A0FF53AE7B8EC77
:1002A0000000381A000029E9D8E70000000000002B
:1002B000EBE600008FE400007CE56CF5F81400002C
:1002C000C2E7000034EE00008EE600000000E10D01
:1002D00018F000009617540B00006B0E5E0A8F1486
:1002E00048E6000043EA0000B3E8000000005418AC
:1002F00066E6000067E60000000000000C19331FEE
:100300009117000000003BE700000000B6E7000086
:100310000000F01467ECB9190000000000000000B4
:100320000000000000007A1C000000000000000037
:100330000317000000000000000000000000F71696
:100340000000000000000000C2E10000491E0000A3
:1003500000000000000000009DE30000000000001D
:100360000F150000DF1546E80000E4100000000053
:10037000AC1A0000000000000000000000000000B7
:100380000000000023EF00000000000035E89C1989
:10039000000026E70000000000000000EF16781BB8
:1003A00050E3000000000000591913E500000000B0
:1003B000000000000000000000000000000000003D
:1003C000CBE50000A31C341B00000000000000006F
:1003D0000000D5E5000000006EE8000000008BE999
:1003E00000000000941800008E1600000000A21803
:1003F000000009E9000000001EE96414000000008C
:100400001A1C00000000000000006EEAA6E20000D6
:100410001C1C000000000000000000000000DBE8E1
:100420000000000000005B1C61DA0000000000001A
:10043000000054E1DAE3841B00000000000000002B
:1004400000000000000000000000000000000000AC
:1004500007EB0000000000006D1800003E170000D0
:1004600045EA00000000D720000000000000441909
:10047000000054EC000053E6000000000000FBEB1D
:10048000F1DA000000008DE884E7000000000000C1
:10049000000000000000C51500005BE8000000003F
:1004A00000000000B718000000000000000000007D
:1004B0006FEEC316C41827E50000000000008E147C
:1004C0008DE80000AB15A41DDE1C0000000000003C
:1004D000000037E600000000000000000C1D7A1448
:1004E000000000000000000000000000000000000C
:1004F00000000000000000007B1B0000351633E602
:100500000000D4EA0000C419000000000000000050
:1005100000004919000000000000FF19BEE90000BA
:10052000E0E5000000000000811C0000B71600009C
:1005300000000000E01500000000000000000000C6
:100540000F1400004EE5451A00000000E7130000FC
:10055000DA173DEB00007B170000DDDE0000000035
:10056000D5E40000E21C00008DEDF1DF20E9E91A7E
:100570000000E8EA9FE000002E1F3C148B1D83DF83
:10058000E1E300000000AB1800000000C5E200003D
:10059000801C000000000000000000000000C4E714
:1005A00000000000511500000000000000000000E5
:1005B00000000000DC180000B4E131E500009514F3
:1005C0005B170000000000000000000000000000B9
:1005D000000000000000A1E80000000082180000F8
:1005E0000000561700008B1A00008AE4000000008B
:1005F0000000A7E5AB1700006216DBEB00001F143C
:100600000000411600000000000000000000000093
:10061000C8E700000000000000000000000000002B
:1006200000000000E31A0000D0E576E500004FE886
:1006300000000000000000000000CA1657E97C1A04
:100640000000000075E6000000000000000000004F
:10065000000022E40000FC1977EB51E800000000E4
:100660000000D215000096160000EDE40000000026
:1006700000000000000000000000F2E693E7000028
:1006800000000000000082EA69170000071673EA04
:1006900000000000E41F0000E11500000000000061
:1006A00000001AE50000000000000000000000004B
:1006B000D5182116000095190000F2E4000097E714
:1006C00000007D1800000000000000000000000095
:1006D000851500000000000000001FE5000036E75F
:1006E00007E7B61847E6ABE700000000000000008F
:1006F0000000B1E9000000000000B2E49019C31846
:1007000000000000C9160000AF170F1A000084E4B3
:100710001FE900008FEB0000000078114213000079
:10072000000000000000000000000000BE150000F6
:1007300000000D1B000061E9000000000000000047
:1007400000000000000000000000000000000000A9
:1007500000007B170000000000000BE5CCE5000066
:1007600000000000000000000DEA3DE7000000006E
:10077000B3E85BE500000000701800008D1A00006F
:10078000C116000000000000000000000000000092
:10079000061D00009B146B1500000000000089E29C
:1007A000000019180000761A000058190000000017
:1007B00000000000000000000000E0EA000000006F
:1007C00086183CEB0000000000000000000051EA29
:1007D000000091150000E8E62EE474E4000000003B
:1007E000000009E90000F21600003AE400000000F1
:1007F0000000CCE500000000000000000000000048
:1008000000000000E4E7000000000000000000001D
:1008100084190000B2EA0000000000002D1400005E
:100820002D1B8D1B00004BE800008F160000000000
:1008300000006DE50000000000000000000078E905
:10084000000000000000000000002AE3000000009B
:1008500054170000CB140000000000000000B8E7AF
:10086000D8170000000000002D12000091E5501B79
:10087000D2E5000000007F1500000000BCE300008E
:1008800000000000000000002E1B0000000000001F
:100890000000000000000000000000000000000058
:1008A0000000000000000C1BD31E87EB00000000BE
:1008B000FB1B0000000072E60000AD15CA1C000022
:1008C00000000000000000000000F91900004C19B1
:1008D000000096F00000000082E600000000B3EA8D
:1008E0000000000000000000000000000000000008
:1008F0006E190000000000008115000000000000DB
:100900000000000000000000AB1400000000000028
:10091000000000000000000000000000B41600000D
:1009200000000000000000000000000023E96DE668
:10093000E619000028E536E40000000000007DEA2A
:100940000000CE18DF1A00000000A61800003F15B6
:1009500007E90000000000000000000000009A15F8
:100960000000F6E8000000006A1A00000000000025
:100970000000000000007E16BC14931B00009816B7
:1009800000000000A21B000000000000C3E5000002
:10099000000000000000000000000000CB18DAE5B5
:1009A00000008316000000000000000000000000AE
:1009B000000000004BEB0000000000000000000001
:1009C0000000000000000000000000000000000027
:1009D0000D1800000000000000001AE700000000F1
:1009E00000000000591DB2E500008417000000005F
:1009F000000000000000000016199AE60000000048
:100A000000008DEA0000AAEA7317071A000090E4BC
:100A1000F0E6000000000000000000000000A21648
:100A20000000000000000000AC1500000000000005
:100A30000000E21500000000000067E40000000074
:100A4000000003170000741600000000721A000076
:100A5000000000000000C6E72EE40000000027159B
:100A60000000000000000000000000000000000086
:100A70000000000006EB5CE5000000000000000044
:100A8000F018000042140000FDE6CA170000000044
:100A90000000000000000000000000000000000056
:100AA000000000000000000000000000A916000087
:100AB000811800000000000000000000000000009D
:100AC0000000000000000000E5E8781400000000CD
:100AD0000000000000000000000047E680E9000080
:100AE000501811EA00000000FA1C0000000000008D
:100AF00000000000000000000000000000000000F6
:100B0000000008160000000096140000000000001D
:100B100000000000000000005116FFE9E11A63E93F
:100B200004EC00000000E5140000000000000000DC
:100B3000D1E441E9000000000000E0E50000000011
:100B400000000000000002EC00000000000099E737
:100B50000000000000000000C0E6AEE395E884E974
:100B60000000EE1900000000401900000000F81914
:100B7000D315000000000000000099E7000000000D
:100B8000B41B8DE500000000000000000000000024
:100B900000000000000000000000000010E900005C
:100BA000AE1A0000F6165CE8EFE4B015C0EB0000EA
:100BB00000000000A01A20E6000000000000000075
:100BC0000000021993174CEA0BEA00000000000035
:100BD0000000000000000000000000000000000015
:100BE0000000000055E7000058E60000000000008B
:100BF0000000CAEA00000000000000000000000041
:100C000058150000C01600000000000000000000A1
:100C1000000000000000000000003CE600000000B2
:100C200000000000000000000000000000000000C4
:100C3000E714000000000000000064E50000000070
:100C40000000FEEB0000CB1B0000000000000000D5
:100C50000000781A0000EE18000000007D19EBE794
:100C60009AE80000AE16000000000000000000003E
:100C7000000064EA0000000000000000FCE9000041
:100C800000000000601C401600005BE80000F31943
:100C90000000000000000000000042140000B6E662
:100CA0000000000000000000000000000000000044
:100CB000BFE700000000000000000000000000008E
:100CC000EEE90000000000009EE7E01D000044EF98
:100CD0008322E5ED000000000000421C000084E9D2
:100CE0000000651000000000000000006E1300000E
:100CF0007B2000000000000000000000D41CAB17A7
:100D000000000000000000000000000073E7000089
:100D1000F4E60000000000000000CEEA0000000041
:100D200032E8000000000000000030E70000000092
:100D3000000000000000AEE8AA1F00000000000054
:100D40000000000000000000811900000000000009
:100D500000000000CB110000ABED0000021C000001
:100D6000011C5CE40000CF170000C3E3000000009A
:100D7000B01400000000000000001119AED90000FE
:100D8000000006114CE4000000000000000000001C
:100D900047260000000079DEFD1A0000D61800008A
:100DA0000000A61E000068E9AAE13918B619000083
:100DB00000000000D4170000000045ED0000000016
:100DC0001A1500000000000000000000C9E6000045
:100DD00000000000000000000000000000004418B7
:100DE000000049DA000000000000000000000000E0
:100DF00000000000000024200000000000000000AF
:100E000000000000000002D686E7E21800000000A3
:100E10003A1F000064148EEE000000000000000085
:100E20000000000084E900003F1779E30000D517B7
:100E30009EE90000F6E300000000CC120000000074
:100E4000000001E90000000000003CE478E28FE7C8
:100E50000000ACE000002FEC0000000000000000EB
:100E60000000FFE481EA000000009DE538E3000097
:100E70000000000000000000000000000000000072
:100E80008516B6E7000000000000000047E7B41632
:100E90000000000000000000000000000000AEEABA
:100EA00000000000CD1B000000000000000000005A
:100EB000A3E9000000000000DAE5000000000000E7
:100EC000E0E4AAEE00000000000000000000F1ECE9
:100ED00028EB0000000000000000000000000000FF
:100EE00001DE0000FBE10000000077EE00000000E2
:100EF0000000E2F197E700000000000007EA0000B0
:100F0000000000000000000000000000511400007C
:100F1000000000000000000000000000521644E93C
:100F20000A1498ED000000005B140000AC160000ED
:100F300000000000000018E30000ECDE0000ED1CE3
:100F40006728000000000000000000000000000012
:100F50000000ECE20000CBE00000B8E3D119000093
:100F6000BE244BD50000000000000000000000007F
:100F70000000000000000000C31700003916000048
:100F80000000000000000000000000000000B21C93
:100F9000301A46EB49E9A2E500000000000002EB30
:100FA0000000B719000000000000000050EA000037
:100FB000000055E6000000000000DB180000000003
:100FC0000000000000000000000000000000000021
:100FD000000000000000191700007EE6F415000074
:100FE00085EA981662E8000000000000FEEC0000B0
:100FF00036E6CF17000000000000000000000000EF
:1010000000000000261559EB000069144718000085
:10101000000000007E130000BE1A26E7000000005A
:1010200000000000000000000000000074E8ABEBCE
:101030000000000000004B18CFE20000000000009C
:10104000F91B00000000000000000000000000008C
:10105000B5E700000000000004E40000000000000C
:101060000000CDE4000000003B180000000000007C
:10107000000000001014000000000000000000004C
:10108000000077E80000000000000000C0EB000056
:10109000FCEA80E9000000002FEA000000000000E8
:1010A0000000000000000000F61400000000000036
:1010B000000000002E17000000000000000025E5E1
:1010C0000000000000000000000000008C1449191E
:1010D00059E7000000000000AEEA00000000000038
:1010E0000000000000000BEC0000B6E9000013183F
:1010F000000000000000000087E9C8ED00000000CB
:10110000000000002F169E160000000000000000E6
:10111000EA1300000000000000003AEB0616000091
:10112000000000000000A7E70000F8E80000000051
:10113000000000000000000000000000000013E9B3
:101140000000000000000000000000006F1676168E
:1011500000006B1700000000000079120000000082
:10116000000000000000000000000000DBE60000BE
:1011700000009B19571341E600000000251F0000E6
:10118000000031EA00000000000000000000F2153D
:101190000000B6ECCAE700000000000000000000FC
:1011A000F8EA00000000000000000000000000005D
:1011B000000000000000000000000000000000002F
:1011C00000000000000000000000FEEA33EC000018
:1011D000B6EB00000000000000000000000000006E
:1011E000B3EB000086E500007CE500004E15000032
:1011F00000003D1A00000000000000000000000098
:101200000000B61B000000000000000000005F139B
:1012100000000EEC92DE00000000EFDD0000441C38
:1012200000000000000000004E2A00000000000046
:101230000000000000004615F1EFD0E500000000BE
:10124000A4180000F5E9E114000000004A15FA14A2
:101250000000000000000000AAE9A2E60000000073
:101260000000000000004A150000FEE7000000003A
:1012700060EBFAE80000000000000000B613000078
:101280000000B5E480EAA5E1B91868DB00000000C1
:101290000000000000000000000000000000F4DD7D
:1012A00000000000000000000000000047168B173F
:1012B00000003AE8000072EC00000000000057EB6C
:1012C000000088E700000000000000000000F9189E
:1012D00000000000F216B8EA000035EC0000000043
:1012E00000000000000000000000000000000000FE
:1012F000C51609180000631900000000A7180000B7
:101300000000000000005F13000000000000001B50
:101310000000000000000000000000006CEA3EEA4F
:101320000000000000000000000000000000C5E612
:10133000E3EC00003FE7AB13B3E90000000093E8E3
:10134000000000009EE900005CE5000000000000D5
:1013500000007218000000000000000028E70000F4
:1013600000000000E118EF17000089E80000DCEA47
:101370000000000092E900000000000000000000F2
:101380000000CBEC000000000000000000000000A6
:101390000000E816000000000000491400004DECB9
:1013A000000000001AE9000000000000B9E8000099
:1013B000001654180000000000000000B0E9000012
:1013C0000000A917F4EA1AE700000000000000007E
:1013D0000000BBE60000CE17000000000000000087
:1013E0000000000000000000000036EBFBEA0000F7
:1013F000FAEA000000006F1900000000000036EA61
:10140000000007140000000016E70000831600002B
:101410006E1500000000F815A7E5000000000000B0
:101420000000000000000000000000000000A0E636
:101430000000EC1300000000E716BD150000FCE8FA
:1014400013E76413DD150000000000005F1878E961
:101450000000000000000000000000000000A218D2
:101460006F1573EC000006EBA5EB000000000CEC20
:1014700064160000621900000000000062EB94187E
:101480000000EBE951E900000000441900000000F1
:10149000000000000000000095EB000000000F13AA
:1014A000C9140000000000007816000000000000D1
:1014B000000000000000DEE8F7E700000000000088
:1014C0000000A2180000000079E9641800002B1544
:1014D000000067E600000000000000000000621845
:1014E00058130000000000008CEA00004C1855EB77
:1014F000000000000FEB00000000000000000000F2
:101500000000000000000000000000000000C1E832
:1015100000000000000000000000000000000000CB
:1015200000000000000000004FE700000000000085
:10153000C8EA79E6000000008B16231900000119A3
:10154000000015EB00000000000026130000000062
:1015500000008DE500000000000000000000000019
:1015600083140000000001ED0000000000000DE603
:101570006C140000E2150000000000000000D1E63D
:1015800000000000000039E93DEC00000CEC000018
:101590002418000000000000811800000000000076
:1015A0006AEA0000F8EB000000004A140000971AF5
:1015B0000000000000000000000000003A170000DA
:1015C000000098E7000000003BE70000000072E622
:1015D0000000000000000000901700000000000064
:1015E00000003BE90000000043150000E515000085
:1015F00000000000721906E8000057E80000000033
:101600000000000023E76CE800000000000000007C
:101610000000000000000000000000004CE7BD12C8
:101620000000B0EA0000000007168EEB000000008A
:1016300000000000000000000000131400000DE88E
:1016400000000000000000007EEC00004EE770EAA1
:101650000000FB16000000007EEA621A00000DE7A1
:10166000000000000BE8ECEAEB171814000059E743
:10167000000000000000000000000000000000006A
:101680000000000016EB00000000000000000B1539
:10169000000061EA0000C11300000000000000002B
:1016A00010E6060014001A001B00000008000C00E1
:1016B00018001A001B001C000000010002000900B5
:1016C00013001400190000000B000D0011000000B1
:1016D00004000600080009000A00190000000600C6
:1016E00009000C0010001100120017000000040097
:1016F0000600080009000A001000000001000800B0
:101700000C00140019000000010003000400100088
:10171000180019001B001C0000000100020004005A
:1017200008001000120013001700000008000A0053
:101730000B000F0012001500170019001A0000001E
:10174000050007000F00120019001C0000000B002C
:101750000D000F0012001600170000000300070024
:1017600014001500160018001900000008001000F1
:101770001300160019001C000000020007000900F9
:101780000C00100013001600180019001C000000C7
:10179000040008000D0000000100050006000D0017
:1017A0000F001000140000000100040005000800F4
:1017B0000D000E001000000002000E0011001500C8
:1017C00000000400060008000C0015001B000000CB
:1017D0000300040005000A001300170000000300C6
:1017E000050009000A0013000000040012001600A2
:1017F000000002000C0014001C00000002000500A4
:1018000007000A000F001C00000003000B000F007F
:101810001200180019000000010007000B00100062
:10182000110019001C000000010002000400120059
:1018300016001A0000000B000D000F001400190024
:101840001B0000000100020003000700110000005F
:101850000E0019001B0000000F00150019001C00ED
:10186000000009000A000B000F0011001300160011
:10187000170000000F0012001B000000030006000C
:101880000D0000000100070008000D000E00100010
:10189000150000000C0019000000030007001300F1
:1018A00014001900000001000E0019001C000000C7
:1018B0000100030004000A000E000F0010001100D8
:1018C00013001C000000030009000E0011001400AA
:1018D00015001B001C00000003000600080010009B
:1018E0001C00000001000300060009000D001500A7
:1018F0000000050007001500160017000000030097
:1019000004000C000D000E00140000000100030094
:10191000050009000D00100016001A00000002006A
:1019200007000E000F0013000000010008000A006D
:101930000C000E001100130015001A001B0000001F
:101940000100020004000500090010001200170049
:101950001B0000000200050008001B000000020040
:101960000500080009000B00100014001500170006
:101970001B000000000001000300070009000E002A
:101980000F0017001A001B001C00000013001600B7
:1019900018000000030008000D00130000000700FD
:1019A0000D001000110012001600190000000100C7
:1019B0000400060008000D000F00100013001600C0
:1019C00017001C0000000600080009000B000C00B6
:1019D000150000000A0010001700190000000500A3
:1019E0000900100013001C0000000700080012008E
:1019F0001A00000007000A000C001100120000008D
:101A00000D001200150000000100020009000A008C
:101A10000E00160019001A00000012001400160033
:101A20001A001C000000010008000F001A0000004E
:101A30000100040005000A000D0011001500190046
:101A4000000009000D000F0013001B000000010042
:101A500002000B00110015001A00000008000A0027
:101A60001200000002000E000F00130019001A00FF
:101A70001B0000000500060007000B000C000D0015
:101A8000180000000D000E001000140018001B00CC
:101A900000000A00160000000100030005000F000E
:101AA0001000110012001600180019001C000000A0
:101AB00008000F00120000001000110000000100DB
:101AC0000E00120013001A00000002000A000C00B1
:101AD000180000000C000F001A00000002001000A7
:101AE0001300000003000E001A001B001C00000081
:101AF0000800090010001B00000002000A0012008C
:101B0000140017001C000000060008000C00130061
:101B10001500000007000E0010001200150019004B
:101B2000000003000B000F00000006000C000D0079
:101B3000100014001C00000001000F001B001C001E
:101B400000000500100015001C0000000300040048
:101B500009000A000B000C0014001A001C00000011
:101B600005001200140017001B000000040005000F
:101B700008000A00000006000E0017000000080020
:101B800012001A000000040008000B000D001300F2
:101B9000140019001C000000010009000A000F00D9
:101BA00014001700180000000F00120016001800A3
:101BB000000004000500060008000D000E001300E0
:101BC00015001C000000020003000D000E000F00B5
:101BD000100011001C000000E0F5F6DE9FD82F3148
:101BE0001E2BF3E59725A5DADCFA261784E09DDEA7
:101BF000B20A63D082DD3CC82818DBE3E8DD340696
:101C00001CD7D410440E57DF07E62FD98DDDADE980
:101C1000E328B7DE23F729E62ED2EFD91FE2B3DDA2
:101C200088E0982362DFBBE6E0E5DEE91C0FF0E028
:101C30007D09EAD6DAE88FEE96DC761D53E28E1740
:101C400071E754D5C91D3022B3F32BD5402163E78A
:101C50003612D71864E3802657168420461259148A
:101C600068E2AFE03419502AF6D985E2A6DDC71A3A
:101C7000061A29260C28A6EC2407FA1839E9C0DF31
:101C80008EF3992236D887E5E11FADD98E25DF0F77
:101C90007A171DE57917BFDBDE1A14EB380DC3F296
:101CA00019212512E71381078C1973E5F0DE391A23
:101CB00089DA6C197618B625A0EB92E39FDAB7188B
:101CC000471AA8E7D3149622E3E933E49EE36C15A0
:101CD0005DD98812D5EAA8182D14961BA70902DD34
:101CE000BDE6701189DD6AECF70B52E70FE0E30EF9
:101CF0003BDFB3DCF0F02123BAED98158DE84716F1
:101D000022EB94E8FBEAF5E206EA1AE796DC4011DA
:101D100005E8ECF398F33F0F8413C7E61114081C91
:101D2000EC0925E880E76CE7A9EE42084B1F3FF776
:101D30008CE79F17A4E794E4EEECB61466EC661704
:101D4000811E8DE118E2680B7CE595E803ED2BE43C
:101D500078179716FE17B50FBE0ECD1A5EE2BCE7D8
:101D6000B8E0A61E20EA9C0E6C2781E5FB15FBD788
:101D7000C2E380E5F20B3FEEA3165DED2326E8EA11
:101D8000FAEC4C149B146AE26D13BB243B13580FFE
:101D9000D8172AE734E821E74C1049E152E48819C2
:101DA000A5E53E20AF1655E809149C0FB9E11FEBDD
:101DB000A1E916F012ECA5EAC7E7D80E690D1BECF5
:101DC000E31DE0E642E82FE11FE5A30DD115521413
:101DD000C6E8F5E77411BCF76AECE90678DE501541
:101DE000E31795E3A2ECB51112040F145DDF35EB98
:101DF00079180C24DF0B0417BDE991E1E3EB0CDF4C
:101E0000BBE3B4ED810EC6174DE37CE325080FE775
:101E1000590D211CD4E5C5EBC5DBEB1046E0C81617
:101E2000FEF048EDFDF03A194DE6FE17FD18C41618
:101E30005D115A1819E02E128BEBA5EA39E7791BD0
:101E4000CDEF57E576053DEC3DE3BEE238ECE5F13C
:101E5000D90FF8EF9CE707DF5AF7601E6D04DC1816
:101E60006DEBEDDCEDE8F7ED14EDE50EEE19291F55
:101E700096E26DE71ADA3414F1132B1797EB9919E0
:101E800030DD671FD51946106B1299ECD30AEE119D
:101E900069ED7AE74FE43B162C1BB4DFE8E9F9E083
:101EA0005DEDE5D9C10FC616D6EAF11AA3E0051516
:101EB000F90E1318ABE41B1FA1EF9C1C330EC810C6
:101EC0001DE8970BC2E5B7E1DE2154DD040DC1EF3B
:101ED000BB12182189E08BE793E1B7207A17DFDC8A
:101EE00036E33FDDFDE1CD1331F0D7E179DB13D6E9
:101EF0003FE2C5EF2BEC7506D12121E15DE5B90686
:101F00003ADD43D89BDC2EF73C17031BA3E76C0C90
:101F10000D1BBADA54D1090C2FF9F5DB9F2A2829B9
:101F200019015D1A84229D29FA1E3DDB3B078EDADA
:101F300067292E29E8E50AF1420F5ECB86DD26ED02
:101F4000560881DC0414BAEE22260FCA88181D2612
:101F5000FF1CCF141F07E30EABE2AFDD9C1977DD4A
:101F600035E0B3F0C8105018F21EF8147D14D9E310
:101F7000E716B11481DD8CDD460C1F0EC1189D10D3
:101F8000C8EF6AE2591348F58A1511E7981B1FEE4E
:101F9000D014AC1117153AEEC1EDD8DE9AE49FF0DB
:101FA000C40EC9117518FFE881F0BB0C5815011853
:101FB0006BEEFCECD612EFEB2B0AB7132514B4171B
:101FC0007916C013F4E4DDE9950C5416400B0911A1
:101FD000A4EC39E954E8EE10990A770BAA1347E309
:101FE000570EC8DA781DD5F458EC980A291DA915A2
:101FF000401D170D45F39CFAA2E7A7070A08171F13
:102000009904A0F2B40979E271D49F0DF7E866E46F
:10201000401467177DE5CDFA0321E816440A701ACB
:102020003A22C0DBCEE84C269727171DB5E1E4E144
:10203000F208A50CA9F992023B05ED01B1FECAFF19
:102040000EFC060628E22DF543FF41D917ECA1FB53
:10205000C3F7210B39E28CFBA00CBF06390093EDCE
:10206000C3FFDC1F06ED1F1FA1D25CE688F64D15ED
:1020700044034F1B72DE52F16909730811241FBE1D
:10208000CFEFD8E0DEBFCDBF11E0A0E0B1E0ECE4DF
:10209000F6E402C005900D92A639B107D9F723E006
:1020A000A6E9B1E001C01D92A836B207E1F70E948F
:1020B0003A1F0C9424230C9400008F938FB78F93B6
:1020C0009F938091680290916902019690936902B2
:1020D000809368029F918F918FBF8F911895CF93B6
:1020E000C82F8A3029F470E060E08DE00E946F1004
:1020F0008091C00085FFFCCFC093C60090E080E0D7
:10210000CF9108951092C50087E68093C400109285
:10211000C00088E18093C10086E08093C20080E027
:1021200091E0909365038093640308958091C000CB
:1021300087FFFCCF8091C6000895ECE7F0E080E4D3
:10214000808380818083EAE7F0E083EA8083808176
:10215000806480830895809178009091790008953B
:1021600080936A02089580916A020895209A8DE40E
:1021700087BD84B5826084BD85B5856085BD0895C1
:10218000CF92DF92EF92FF92CF93DF930E94AB103A
:10219000EC010E94AB10BC0190E080E00E946E2038
:1021A0002DEC3CEC4CEC5DE30E9401216B017C01C9
:1021B000BE0190E080E00E946E2026E636E646E60C
:1021C0005FE30E9401219B01AC01C701B6010E949F
:1021D000CC1F0E943F2090E080E00E946E2024E10E
:1021E00038E240EA5BE30E94012120E030E040E079
:1021F0005FE30E94CB1F20E030E048EC52E40E94F5
:102200000121DF91CF91FF90EF90DF90CF90089563
:10221000CF92DF92EF92FF92CF93DF930E94AB10A9
:10222000EC010E94AB10BC0190E080E00E946E20A7
:102230002DEC3CEC4CEC5DE30E9401216B017C0138
:10224000BE0190E080E00E946E2026E636E646E67B
:102250005FE30E9401219B01AC01C701B6010E940E
:10226000CC1F0E943F2090E080E00E946E2024E17D
:1022700038E240EA5BE30E940121DF91CF91FF90B9
:10228000EF90DF90CF9008950F931F93CF93DF933C
:10229000EB01182F092F20E030E040E855E4F80169
:1022A0007D2F8F2F9E2F0E9401210E943820709336
:1022B0005D0360935C03E8E9F2E08281938181939E
:1022C000919383E0E036F807C1F7809198029091EE
:1022D00099020697F4F080E090E190936103809377
:1022E000600388E992E00E942A121F928F930F9355
:1022F0001F93DF93CF9388E391E09F938F930E9486
:10230000B0228DB79EB708960FB6F8949EBF0FBE49
:102310008DBFDF91CF911F910F91089520916B0296
:1023200034E0239FF0011124E459FD4F6083718351
:102330008283938391E0920F90936B02293009F08E
:1023400088C0809193028F93809192028F938091A5
:1023500091028F93809190028F9380918F028F933F
:1023600080918E028F9380918D028F9380918C0249
:102370008F9380918B028F9380918A028F938091AB
:1023800089028F93809188028F93809187028F9327
:10239000809186028F93809185028F938091840231
:1023A0008F93809183028F93809182028F9380918B
:1023B00081028F93809180028F9380917F028F930F
:1023C00080917E028F9380917D028F9380917C0219
:1023D0008F9380917B028F9380917A028F9380916B
:1023E00079028F93809178028F93809177028F93F7
:1023F000809176028F93809175028F938091740201
:102400008F93809173028F93809172028F9380914A
:1024100071028F93809170028F9380916F028F93DE
:1024200080916E028F9380916D028F9380916C02E8
:102430008F938CE491E09F938F930E94B02210922F
:102440006B028DB79EB78A960FB6F8949EBF0FBEEB
:102450008DBF08952F923F924F925F926F927F921D
:102460008F929F92AF92BF92CF92DF92EF92FF92A4
:102470000F931F93CF93DF93CDB7DEB7CE52D340E8
:102480000FB6F894DEBF0FBECDBFDE01AF55BD4F16
:1024900028E3FD0111922A95E9F76C01FAECCF0EC1
:1024A000D11CF12CE12C10E000E0FC016191719154
:1024B000CF0177FF02C061587F4F660F672F661FFD
:1024C000770BF801EE0FFF1FEE55F94E2591349171
:1024D0000F5F1F4F2115310511F00C94101B8C1547
:1024E0009D0519F724E430E2BD01685C7F4FAE0121
:1024F00047595D4F8D919D91F9010591149197FD7B
:10250000019695958795801B910BFA018193919384
:10251000AF012E5F3F4FA617B70761F73E0135EEBB
:10252000631A3CEF730A6AEC7CE0130146E0240E68
:10253000311C230189E692E08C0F9D1FC896CF5D68
:10254000DC4F99838883C152D340DE01AF5CBD4F1D
:102550007D018E0107591D4FAB01FA012591349180
:10256000D8018D919D918D0137FF02C0215C3F4FB5
:10257000F6E035952795FA95E1F797FDCF96E6E0D9
:1025800095958795EA95E1F7289FD001299FB00D91
:10259000389FB00D1124F701A193B1937F014E5FD5
:1025A0005F4FCF5DDC4F28813981C152D340021784
:1025B000130799F605E010E08CE190E07C01F594BA
:1025C000E794FE01EF5CFD4F5F0150E040E04C01FD
:1025D00031E0832299244E155F0514F00C943F1BC3
:1025E00020813181C280D3802C0D3D1DD5012D93DA
:1025F0003D935D014F5F5F4F34964F30510559F762
:1026000001969595879501501109C1F6CF5CDD4F74
:1026100088819981C153D240D2018D939D932D0120
:10262000685C7F4FA215B30509F08FCF9E012B5E2A
:102630003C4FCB5DDC4F39832883C552D340A2EF9A
:10264000CA2EA2E0DA2E2A5F3F4FCD5DDC4F3983E0
:102650002883C352D340CB5DDC4F68817981C5525A
:10266000D340AE0147505E4F7A018E0107591D4F8E
:10267000A601FA0125913491F801819191918F0180
:1026800037FF02C0215C3F4FF6E035952795FA955C
:10269000E1F797FDCF96E6E095958795EA95E1F706
:1026A000289FD001299FB00D389FB00D1124F7014C
:1026B000A193B1937F014E5F5F4FCF5DDC4F2881C7
:1026C0003981C152D3400217130799F605E010E093
:1026D0008CE190E05C01B594A794FE01E750FE4FB9
:1026E0004F0150E040E02C0131E0432255244A15CF
:1026F0005B0514F00C94501B20813181E280F38043
:102700002E0D3F1DD4012D933D934D014F5F5F4F23
:1027100034964F30510559F701969595879501509C
:102720001109C1F6C750DE4F88819981C95FD14038
:10273000DB018D939D93BD01B8E3CB0ED11CCD5D24
:10274000DC4F28813981C352D3406217730709F0E7
:1027500088CFCB5EDC4F88819981C551D3408115EC
:1027600058EF950714F480E098EF813068E0960701
:1027700014F080E098E0CB5EDC4F99838883C551EC
:10278000D340C95EDC4F88819981C751D340811500
:1027900078EF970714F480E098EF8130A8E09A076B
:1027A00014F080E098E0C95EDC4F99838883C751BC
:1027B000D340C75EDC4F88819981C951D3408115D0
:1027C000B8EF9B0714F480E098EF8130E8E09E07B3
:1027D00014F080E098E0C75EDC4F99838883C9518C
:1027E000D340FE01E15FFC4FCB5DDC4FA881B98196
:1027F000C552D3408D919D91CB5DDC4FB983A883A9
:10280000C552D340D3012D913D913D0137FF02C008
:10281000215C3F4FB6E035952795BA95E1F797FDD6
:102820004F96A5E095958795AA95E1F7289FA00179
:10283000299F500D389F500D1124419351936214DC
:10284000730491F64AE651E0BE016F537E4FDE01FC
:10285000A759BD4FFA01259134918D919D9137FF74
:1028600002C0215C3F4FF6E035952795FA95E1F7D8
:1028700097FDCF96E6E095958795EA95E1F7289F35
:102880008001299F100D389F100D1124FB01019329
:102890001193BF014E5F5F4FCF5DDC4F28813981BF
:1028A000C152D340A217B307A9F665E070E08CE1EE
:1028B00090E07C01F594E794FE01EF53FE4F8F0109
:1028C00050E040E05C01B1E0AB22BB244E155F0557
:1028D0000CF0F7C620813181C280D3802C0D3D1DC4
:1028E000D8012D933D938D014F5F5F4F34964F304C
:1028F000510561F701969595879561507109C9F663
:10290000CF53DE4F88819981C15CD140B2E02B2E3C
:10291000312C181619061CF422242394312C2E0174
:10292000E7EF4E1AECEF5E0A88EA829D3001839D44
:10293000700C1124B3016653734F92012A5F3F4F0D
:10294000CD5DDC4F39832883C352D340CB5DDC4F50
:1029500059824882C552D340CE0187579E4F7C0191
:102960008E0107591D4FAB01FA0125913491D80111
:102970008D919D918D0137FF02C0215C3F4FF6E0A4
:1029800035952795FA95E1F797FDCF96E6E0959571
:102990008795EA95E1F7289FD001299FB00D389FD0
:1029A000B00D1124F701A193B1937F014E5F5F4FEA
:1029B000CF5DDC4F28813981C152D3400217130704
:1029C00099F605E010E08CE190E07C01F594E79445
:1029D000FE01E757FE4F5F0150E040E04C0131E05F
:1029E000832299244E155F050CF079C62081318130
:1029F000C280D3802C0D3D1DD5012D933D935D01EB
:102A00004F5F5F4F34964F30510561F701969595B2
:102A1000879501501109C9F6C757DE4F8881998102
:102A2000C958D140CB5DDC4FA881B981C552D34094
:102A30008D939D93CB5DDC4FB983A883C552D34062
:102A4000685C7F4FCD5DDC4F28813981C352D34014
:102A5000A217B30709F080CFAE014D5F5C4FC95D8F
:102A6000DC4F59834883C752D340B3016E507D4F2A
:102A70003B014A5F5F4FCB5DDC4F59834883C552B2
:102A8000D340C95DDC4FE880F980C752D3408E0146
:102A90000F5A1E4FBE0167597D4FA301FA012591C0
:102AA0003491DB018D919D91BD0137FF02C0215C06
:102AB0003F4FF6E035952795FA95E1F797FDCF96CC
:102AC000E6E095958795EA95E1F7289FD001299F43
:102AD000B00D389FB00D1124F801A193B1938F016F
:102AE0004E5F5F4FCF5DDC4F28813981C152D340AB
:102AF0006217730799F665E070E08CE190E06C0175
:102B0000D594C794FE01EF5AFE4F5F0150E040E0BC
:102B10004C0131E0832299244C155D050CF0EDC584
:102B20002081318102811381200F311FD5012D9326
:102B30003D935D014F5F5F4F34964F30510561F714
:102B400001969595879561507109C9F6CF5ADE4F68
:102B500088819981C155D140D7018D939D937D0185
:102B6000B8E36B0E711CCB5DDC4F28813981C552F7
:102B7000D340E216F30609F08ACFCD5FDC4F88819F
:102B80009981C350D340811538EF930714F480E046
:102B900098EF813048E0940714F080E098E0CD5F32
:102BA000DC4F99838883C350D340CB5FDC4F88814F
:102BB0009981C550D340811558EF950714F480E0F2
:102BC00098EF813068E0960714F080E098E0CB5FE2
:102BD000DC4F99838883C550D340C95FDC4F88811F
:102BE0009981C750D340811578EF970714F480E09E
:102BF00098EF8130A8E09A0714F080E098E0C95F70
:102C0000DC4F99838883C750D340AE0143505D4F5A
:102C1000FA01C95DDC4FA881B981C752D3408D91BB
:102C20009D91C95DDC4FB983A883C752D340D201BF
:102C30002D913D912D0137FF02C0215C3F4FB6E041
:102C400035952795BA95E1F797FD4F96A5E09595AF
:102C50008795AA95E1F7289FB001299F700D389FAD
:102C6000700D1124DA016D937D93AD01CD5DDC4FC4
:102C700028813981C352D3404216530651F6208130
:102C80003181C15FDC4F88819981CF50D340A90148
:102C9000480F591FCB5DDC4F59834883C552D34041
:102CA00022813381CF5EDC4F88819981C151D3402D
:102CB000B901680F791FCD5DDC4F79836883C352FA
:102CC000D340CD5EDC4F28813981C351D34084810C
:102CD0009581D901A80FB91FC75DDC4FB983A883BF
:102CE000C952D34088E3829DA001839D500D1124D9
:102CF00046595E4FBE01675E7E4FDE01A759BD4F4C
:102D0000FA01259134918D919D9137FF02C0215C8C
:102D10003F4FF6E035952795FA95E1F797FDCF9669
:102D2000E6E095958795EA95E1F7289F8001299F30
:102D3000100D389F100D1124FB0101931193BF0159
:102D40004E5F5F4FCF5DDC4F28813981C152D34048
:102D5000A217B307A9F665E070E08CE190E07C0172
:102D6000F594E794FE01E75EFE4F8F0150E040E0EE
:102D70005C01B1E0AB22BB244E155F050CF0CBC467
:102D800020813181C280D3802C0D3D1DD8012D932F
:102D90003D938D014F5F5F4F34964F30510561F782
:102DA00001969595879561507109C9F6C75EDE4F0A
:102DB00088819981C951D140181619060CF0B9C4FF
:102DC000220C331CEFEF2E1A3E0A2E0129E0421A84
:102DD0002DEF520A88EA829D4001839D900C1124B8
:102DE000B4016653734FA2014A5F5F4FC95DDC4F68
:102DF00059834883C752D340C55DDC4F598248820E
:102E0000CB52D340CE018F519F4F7C018E01075989
:102E10001D4FAB01FA0125913491D8018D919D91FF
:102E20008D0137FF02C0215C3F4FF6E035952795B5
:102E3000FA95E1F797FDCF96E6E095958795EA95A7
:102E4000E1F7289FD001299FB00D389FB00D1124C4
:102E5000F701A193B1937F014E5F5F4FCF5DDC4FD0
:102E600028813981C152D3400217130799F605E032
:102E700010E08CE190E05C01B594A794FE01EF5165
:102E8000FF4F3F0150E040E07C0131E0E322FF24AE
:102E90004A155B050CF053C420813181C280D38078
:102EA0002C0D3D1DD3012D933D933D014F5F5F4F91
:102EB00034964F30510561F70196959587950150ED
:102EC0001109C9F6CF51DF4F88819981C15ED04089
:102ED000C55DDC4FA881B981CB52D3408D939D93C2
:102EE000C55DDC4FB983A883CB52D340685C7F4F6C
:102EF000C95DDC4F28813981C752D3402A173B076F
:102F000009F080CFAE014F505D4FC35DDC4F598358
:102F10004883CD52D340B4016E507D4F4B014A5F80
:102F20005F4FC55DDC4F59834883CB52D340C35DAF
:102F3000DC4FA880B980CD52D3408E0107551F4F7A
:102F4000BE0167597D4FA401FA0125913491DB013F
:102F50008D919D91BD0137FF02C0215C3F4FF6E08E
:102F600035952795FA95E1F797FDCF96E6E095958B
:102F70008795EA95E1F7289FD001299FB00D389FEA
:102F8000B00D1124F801A193B1938F014E5F5F4FF3
:102F9000CF5DDC4F28813981C152D340621773075E
:102FA00099F665E070E08CE190E07C01F594E7949F
:102FB000FE01E755FF4F3F0150E040E08C010170FA
:102FC00011274E155F050CF0C8C320813181C280E6
:102FD000D3802C0D3D1DD3012D933D933D014F5FBB
:102FE0005F4F34964F30510561F70196959587955F
:102FF00061507109D1F6C755DF4F88819981C95A4F
:10300000D040D5018D939D935D01B8E38B0E911C4B
:10301000C55DDC4F28813981CB52D3402A153B0551
:1030200009F08BCFCF50DD4F88819981C15FD240AD
:10303000811538EF930714F480E098EF813048E071
:10304000940714F080E098E0CF50DD4F9983888397
:10305000C15FD240CD50DD4F88819981C35FD2409E
:10306000811558EF950714F480E098EF813068E0FF
:10307000960714F080E098E0CD50DD4F9983888367
:10308000C35FD240CB50DD4F88819981C55FD2406C
:10309000811578EF970714F480E098EF8130A8E06D
:1030A0009A0714F080E098E0CB50DD4F9983888335
:1030B000C55FD240AE0145515D4FFA01C35DDC4FA3
:1030C000A881B981CD52D3408D919D91C35DDC4FD4
:1030D000B983A883CD52D340D2012D913D912D01CA
:1030E00037FF02C0215C3F4FB6E035952795BA9572
:1030F000E1F797FD4F96A5E095958795AA95E1F79D
:10310000289FB001299F700D389F700D1124DA019E
:103110006D937D93AD01C95DDC4F28813981C75224
:10312000D3402415350551F680819181CB5DDC4F6C
:1031300048815981C552D340480F591FCB5DDC4FA0
:1031400059834883C552D34082819381CD5DDC4F42
:1031500068817981C352D340680F791FCD5DDC4F00
:1031600079836883C352D34084819581C75DDC4FE6
:10317000A881B981C952D340A80FB91FC75DDC4FE0
:10318000B983A883C952D34088E3829DA001839D5F
:10319000500D112446595E4FBE016F587F4FDE011E
:1031A000A759BD4FFA01259134918D919D9137FF1B
:1031B00002C0215C3F4FE6E035952795EA95E1F79F
:1031C00097FDCF9606E0959587950A95E1F7289F9C
:1031D0008001299F100D389F100D1124FB010193D0
:1031E0001193BF014E5F5F4FCF5DDC4F2881398166
:1031F000C152D340A217B307A9F665E070E08CE195
:1032000090E07C01F594E794FE01EF58FF4F8F01A9
:1032100050E040E05C01B1E0AB22BB244E155F05FD
:103220000CF0A9C220813181C280D3802C0D3D1DBC
:10323000D8012D933D938D014F5F5F4F34964F30F2
:10324000510561F701969595879561507109C9F609
:10325000E3968EAD9FADE397181619060CF099C250
:10326000220C331CEFEF2E1A3E0A2E012BE1421ADC
:103270002DEF520A88EA829D3001839D700C112443
:10328000B3016653734F120136E0230E311CC95D42
:10329000DC4F59824882C752D340AE01475C5F4F32
:1032A0007A018E0107591D4FAB01FA012591349126
:1032B000D8018D919D918D0137FF02C0215C3F4F58
:1032C000E6E035952795EA95E1F797FDCF96B6E0CC
:1032D00095958795BA95E1F7289FD001299FB00D64
:1032E000389FB00D1124F701A193B1937F014E5F78
:1032F0005F4FCF5DDC4F28813981C152D340021727
:10330000130799F605E010E08CE190E07C01F5945C
:10331000E794FE01F9965F0150E040E04C0131E096
:10332000832299244E155F050CF039C2208131812A
:10333000C280D3802C0D3D1DD5012D933D935D01A1
:103340004F5F5F4F34964F30510561F70196959569
:10335000879501501109D1F689AD9AADC95DDC4F51
:10336000A881B981C752D3408D939D93C95DDC4F2D
:10337000B983A883C752D340685C7F4FA215B305B9
:1033800009F08BCF9E0121523D4FC55DDC4F398343
:103390002883CB52D340C3018E509D4F2A5F3F4FAD
:1033A000C95DDC4F39832883C752D340C55DDC4FEC
:1033B00008811981CB52D340AE014F5F5F4F6A0144
:1033C000BE0167597D4F7B01BC01FB0145915491C2
:1033D000D7012D913D917D0157FF02C0415C5F4FA8
:1033E000E6E055954795EA95E1F737FF02C0215C85
:1033F0003F4FB6E035952795BA95E1F7429FD0014A
:10340000439FB00D529FB00D1124F601A193B193CB
:103410006F016E5F7F4FCF5DDC4F28813981C152D4
:10342000D340E216F30689F6A5E0EA2EF12C2CE152
:1034300030E0490195948794FE0131963F0170E098
:1034400060E0590151E0A522BB24681579050CF014
:10345000B4C140815181C280D3804C0D5D1DD30128
:103460004D935D933D016F5F7F4F34966F307105D3
:1034700061F72F5F3F4F35952795B1E0EB1AF108C3
:10348000C1F629813A81D8012D933D938D01C896CB
:10349000C95DDC4F28813981C752D340A217B307D9
:1034A00009F08ACFC152DD4F88819981CF5DD2402A
:1034B000811578EF970714F480E098EF8130A8E049
:1034C0009A0714F080E098E0C152DD4F9983888319
:1034D000CF5DD240CF51DD4F88819981C15ED2400E
:1034E0008115B8EF9B0714F480E098EF8130E8E095
:1034F0009E0714F080E098E0CF51DD4F99838883D8
:10350000C15ED240CD51DD4F88819981C35ED240EA
:103510008115F8EF9F0714F480E098EF813028E0E0
:10352000920714F080E098E0CD51DD4F99838883B5
:10353000C35ED240AE0147525D4FFA01C55DDC4F1C
:10354000A881B981CB52D3408D919D91C55DDC4F4F
:10355000B983A883CB52D340D2012D913D912D0147
:1035600037FF02C0215C3F4F76E0359527957A956D
:10357000E1F797FD4F9665E0959587956A95E1F798
:10358000289FB001299F700D389F700D1124DA011A
:103590006D937D93AD012414350481F62081318132
:1035A000CB5DDC4F48815981C552D340240F351F74
:1035B00082819381CD5DDC4F68817981C352D34094
:1035C000860F971F44815581C75DDC4FA881B98163
:1035D000C952D3404A0F5B1F281739070CF0FBC0B4
:1035E0009C0181E0241735070CF482E0C25DDC4FBA
:1035F0000FB6F894DEBF0FBECDBFDF91CF911F9104
:103600000F91FF90EF90DF90CF90BF90AF909F9081
:103610008F907F906F905F904F903F902F90089584
:10362000F701EE0FFF1FE852F44E4591549157FFFA
:1036300002C041585F4F440F452F441F550BF901FD
:103640003197EE0FFF1FEA0FFB1F469F9001479F28
:10365000300D569F300D112437FF02C02D5F3F4FB4
:10366000359527953595279540815181240F351F34
:1036700031832083FFEFEF1AFF0A0C94611230E0D0
:1036800020E0E416F50611F00C94F6129401811472
:10369000910411F40C94F612208131810C94F612ED
:1036A00030E020E0A416B50611F00C9482139201CC
:1036B0004114510411F40C948213208131810C9433
:1036C000821330E020E0E416F50609F009C99501FF
:1036D000A114B10409F404C92081318101C930E089
:1036E00020E0E416F50609F087C9940181149104DD
:1036F00009F482C9208131817FC930E020E0C416FD
:10370000D50609F013CA94018114910409F40ECA74
:10371000208131810BCA30E020E0E416F50609F083
:1037200035CB9501A114B10409F430CB208131814E
:103730002DCBFFEF2F1A3F0A220C331C46CB30E073
:1037400020E0A416B50609F0ADCB9701E114F10411
:1037500009F4A8CB20813181A5CB30E020E0E4162C
:10376000F50609F038CC98010115110509F433CCA0
:103770002081318130CC30E020E0E416F50609F0FC
:1037800057CD9501A114B10409F452CD20813181A6
:103790004FCDFFEF2F1A3F0A220C331C66CD30E0CD
:1037A00020E0E416F50609F0C7CD940181149104D8
:1037B00009F4C2CD20813181BFCD50E040E08616B2
:1037C000970609F04CCEA501A114B10409F447CE27
:1037D0004081518144CE80E005CFAFE0B0E0E3EF1F
:1037E000FBE10C94941F6C011B014A01FC01178240
:1037F0001682838181FF34C39E012F5F3F4F3901C1
:10380000F6019381F10193FD859193FF81911F0151
:10381000882309F4D6C2853239F493FD859193FF4C
:1038200081911F01853239F4B60190E00E94802217
:1038300054014501E5CFF12C512C00E0003238F461
:103840008B3209F190F48032F9F0833209F107FDEF
:1038500034C020ED280F2A3020F506FF1BC0FAE007
:10386000FF9E200D1124F22E05C08D3279F0803399
:1038700071F70160F10193FD859193FF81911F0123
:103880008111DCCF1AC002600460F4CF0860F2CF6F
:103890000061F0CF3AE0539E200D1124522E0062B9
:1038A000E9CF8E3221F406FD8CC20064E3CF8C3662
:1038B00011F40068DFCF8836E9F29BEB980F933064
:1038C00008F05CC00061805E06FD02C046E0F42E98
:1038D000102F1F73853609F058C0106417FF5EC0A3
:1038E0008F2D9BE39F1508F48BE344244394480EEB
:1038F00027E0F40161917191819191915F01042D13
:10390000A3010E9492214C01F981FC87F0FF03C0C2
:103910000DE2F3FF07C00BE211FD04C0012F04709C
:1039200012FD00E22C852C70E22E09F457C0011123
:103930009AC2F3E0E12CF515A0F483E0E52CE81A37
:1039400013FD08C0B60180E290E00E948022EA9454
:10395000E110F8CF002329F0B601802F90E00E94FB
:1039600080223C8528E6822E20E0922E33FD04C082
:103970009CE6892E90E0992E107122C09BE9980F49
:10398000933008F034C10F7E9FCF863611F4106853
:10399000A5CFFF2009F4A2CFFA94A0CFE7E02F2D06
:1039A000EF1518F427E037E0F32E412CA2CF1111C8
:1039B0008052B60190E00E9480228FEF881A980A08
:1039C000F40184918111F3CFEE2009F432CFB601D6
:1039D00080E290E00E948022EA94F6CF17FF70C048
:1039E000480CFC85F4FF04C08A81813309F44A94B1
:1039F00014140CF087C028E0241510F488E0482E39
:103A000085E090E017FF06C0C40197FE02C090E079
:103A100080E0019601110196FF2031F02F2D30E05A
:103A20002F5F3F4F820F931F5816190619F014F09D
:103A3000E52CE81A812F897011F4E11068C0002389
:103A400029F0B601802F90E00E94802213FD02C071
:103A5000E11064C017FF7DC0840197FE02C010E032
:103A600000E0C401841991092C016F2D70E0EE274C
:103A7000FF27E61BF70BFF87EE87801691060CF4F5
:103A800054C0401651060CF050C0F401E01BF10B7D
:103A9000E60DF71D8181015011092E853F85021722
:103AA00013070CF444C0B60190E00E9480220F3F3F
:103AB000100719F7B6018EE290E00E948022DDCF58
:103AC00016FD9ECFEF2DF0E0E815F90534F03CEF40
:103AD00083163FEF93060CF010683296E60DF71D43
:103AE00001C0FA94FF2019F082918033D1F317FFBF
:103AF00087CF442443944F0CF814190431F02CF070
:103B0000F8187ECF442443947BCFF12C79CFB601B3
:103B100080E290E00E948022EA948FCFB60180E399
:103B200090E00E948022EA9493CF80E3B4CF801685
:103B3000910641F49A81963350F4953319F49C859B
:103B400094FF05C0B60190E00E9480223DCF81E342
:103B5000F9CF8A81813319F0EC85EF7EEC87B601CD
:103B600090E00E948022FF20A9F0B6018EE290E052
:103B70000E948022F394F394E2E001E00E0FE60D40
:103B8000F72DF11D8081B60190E00E948022E02F88
:103B90000F11F3CF85E690E014FF02C085E490E0BA
:103BA000B6010E94802297FC06C081149104C1F4E2
:103BB000FC85F4FF15C09194819491088DE2B601C3
:103BC00090E00E94802280E33AE08316910454F44E
:103BD000B60190E00E948022B601C401C096B4CF25
:103BE0008BE2EDCF8F5F2AE0821A9108EDCF83360A
:103BF000B1F0833759F1833509F055C0F401819054
:103C000091905F016F2D70E006FD02C06FEF7FEFB6
:103C1000C4010E946A229D878C8700680DC05401F0
:103C200082E0A80EB11CF4018081898321E030E09C
:103C30003D872C8743010F7703FD06C02C853D850A
:103C40005216130609F090F4E52C28C0F401819077
:103C500091905F016F2D70E006FD02C06FEF7FEF66
:103C6000C4010E9475229D878C87E5CFB60180E252
:103C700090E00E9480225A94E1CFF40107FD8591E3
:103C800007FF81914F01B60190E00E948022E11070
:103C9000EA948C859D8501979D878C87EC85FD85B1
:103CA000EF2B59F791CE843619F0893609F06EC0A2
:103CB000F40107FF63C061917191819191915F015E
:103CC000102F1F7697FF08C090958095709561958D
:103CD0007F4F8F4F9F4F10682AE030E0A3010E9472
:103CE000C622882E8618982C012F16FF0AC00E7F38
:103CF0008F1438F414FF04C012FD02C0012F0E7E91
:103D00009F2C04FF85C0FE01E80DF11D80818033EA
:103D100009F077C0097EF02FF870EF2E03FD87C001
:103D200000FF81C0F82C951410F4F50CF91804FF6D
:103D300084C0B60180E390E00E94802202FF09C0A7
:103D400088E790E001FF02C088E590E0B6010E949C
:103D500080228F1408F47DC08A94082D10E00F5F34
:103D60001F4F060D171DF80182918F01B60190E0DB
:103D70000E94802206151705B1F726CE6191719138
:103D80005F01072E000C880B990B9ACF102F8537F7
:103D900091F41F7E2AE030E0F40117FF2CC06191FE
:103DA0007191819191915F01A3010E94C622882E99
:103DB00086181F7798CF197F8F36D1F048F4883551
:103DC00091F0F601868197812F96E2E10C94B01F65
:103DD000803739F08837A9F714FD146020E130E00E
:103DE000DBCF1061F9CF04FD166020E132E0D4CFC3
:103DF00028E030E0D1CF619171915F0190E080E0E7
:103E0000D3CF02FD02C0939486CF9394939483CF33
:103E1000802F867809F47FCFF6CFB60180E290E05C
:103E20000E94802293949514C0F3E12C80CFE52C5E
:103E3000E918951408F47BCFF8CF802F867809F421
:103E400088CF8BE201FF80E207FD8DE2B60190E0B2
:103E50007ECFB60180E390E00E948022FA9479CF71
:103E60008FEF9FEFB1CF24E0E12C251508F074CD42
:103E700084E064CD0E9482100E949D100E94B610C2
:103E800078940E9408119F938F937F936F938EE095
:103E900091E09F938F930E94B0220F900F900F900C
:103EA0000F900F900F90E12C80E1F82E0DE211E0C1
:103EB000A99BFECF85B385BB0E9408112AE939E989
:103EC00049E350E40E94FC20181694F7CEE9D1E0B3
:103ED0000E940811EFE3FCE93197F1F700C0000000
:103EE00020E030E040E855E40E9401210E943820A3
:103EF00069937993F2E0C636DF0751F7F0926702D3
:103F0000E09266028EE991E00E942A121F928F933E
:103F10001F930F930E94B0220F900F900F900F905D
:103F200085E68150F1F7C4CF2F923F924F925F9276
:103F30006F927F928F929F92AF92BF92CF92DF92B9
:103F4000EF92FF920F931F93CF93DF93CDB7DEB71E
:103F5000CA1BDB0B0FB6F894DEBF0FBECDBF0994B2
:103F60002A88398848885F846E847D848C849B8409
:103F7000AA84B984C884DF80EE80FD800C811B8117
:103F8000AA81B981CE0FD11D0FB6F894DEBF0FBE46
:103F9000CDBFED0108955058BB27AA270E94E31F0B
:103FA0000C94C2200E94B42038F00E94BB2020F064
:103FB00039F49F3F19F426F40C94B1200EF4E095E7
:103FC000E7FB0C94AB20E92F0E94D32058F3BA17DB
:103FD000620773078407950720F079F4A6F50C941F
:103FE000F5200EF4E0950B2EBA2FA02D0B01B90190
:103FF00090010C01CA01A0011124FF27591B99F05F
:10400000593F50F4503E68F11A16F040A22F232F6A
:10401000342F4427585FF3CF469537952795A795BA
:10402000F0405395C9F77EF41F16BA0B620B730B61
:10403000840BBAF09150A1F0FF0FBB1F661F771FD2
:10404000881FC2F70EC0BA0F621F731F841F48F487
:10405000879577956795B795F7959E3F08F0B0CF10
:104060009395880F08F09927EE0F979587950895F7
:104070000E943F206894B1110C94F62008950E948C
:10408000DB2088F09F5798F0B92F9927B751B0F0EF
:10409000E1F0660F771F881F991F1AF0BA95C9F7CC
:1040A00014C0B13091F00E94F520B1E008950C9455
:1040B000F520672F782F8827B85F39F0B93FCCF308
:1040C000869577956795B395D9F73EF49095809549
:1040D000709561957F4F8F4F9F4F0895E89409C069
:1040E00097FB3EF490958095709561957F4F8F4F2B
:1040F0009F4F9923A9F0F92F96E9BB279395F69541
:10410000879577956795B795F111F8CFFAF4BB0FBE
:1041100011F460FF1BC06F5F7F4F8F4F9F4F16C022
:10412000882311F096E911C0772321F09EE8872FAC
:10413000762F05C0662371F096E8862F70E060E068
:104140002AF09A95660F771F881FDAF7880F9695E1
:10415000879597F9089597F99F6780E870E060E088
:1041600008959FEF80EC089500240A941616170610
:1041700018060906089500240A9412161306140658
:1041800005060895092E0394000C11F4882352F0BB
:10419000BB0F40F4BF2B11F460FF04C06F5F7F4F73
:1041A0008F4F9F4F089557FD9058440F551F59F05A
:1041B0005F3F71F04795880F97FB991F61F09F3F14
:1041C00079F087950895121613061406551FF2CF3D
:1041D0004695F1DF08C0161617061806991FF1CF8D
:1041E00086957105610508940895E894BB276627B4
:1041F0007727CB0197F908950E946E2108F48FEF7D
:1042000008950E9414210C94C2200E94B42038F01A
:104210000E94BB2020F0952311F00C94AB200C944D
:10422000B12011240C94F6200E94D32070F3959FA6
:10423000C1F3950F50E0551F629FF001729FBB279D
:10424000F00DB11D639FAA27F00DB11DAA1F649F39
:104250006627B00DA11D661F829F2227B00DA11DEC
:10426000621F739FB00DA11D621F839FA00D611D72
:10427000221F749F3327A00D611D231F849F600D93
:10428000211D822F762F6A2F11249F5750409AF0BC
:10429000F1F088234AF0EE0FFF1FBB1F661F771F48
:1042A000881F91505040A9F79E3F510580F00C9413
:1042B000AB200C94F6205F3FE4F3983ED4F3869550
:1042C00077956795B795F795E7959F5FC1F7FE2BB3
:1042D000880F911D9695879597F90895990F000875
:1042E000550FAA0BE0E8FEEF16161706E807F907C8
:1042F000C0F012161306E407F50798F0621B730B63
:10430000840B950B39F40A2661F0232B242B252BE3
:1043100021F408950A2609F4A140A6958FEF811D86
:10432000811D0895283008F027E03327DA01990F1E
:10433000311D87FD916000966105710539F4326089
:104340002E5F3D9330E32A95E1F708959F3F30F0CB
:1043500080387105610509F03C5F3C5F3D93913009
:1043600008F08068911DDF93CF931F930F93FF9206
:10437000EF92192F987F9695E92F96959695E90FCC
:10438000FF27E653FF4F99273327EE24FF24A70189
:10439000E70105900894079428F4360FE71EF81EED
:1043A000491F511D660F771F881F991F0694A1F79B
:1043B0000590079428F4E70EF81E491F561FC11DEB
:1043C000770F881F991F661F0694A1F70590079421
:1043D00028F4F80E491F561FC71FD11D880F991FBB
:1043E000661F771F0694A1F70590079420F4490FE4
:1043F000561FC71FD81F990F661F771F881F069467
:10440000A9F784911095177041F0D695C7955795E7
:104410004795F794E7941A95C1F7E0E7F0E06894C0
:104420001590159135916591959105907FE2739561
:10443000E118F10A430B560BC90BD009C0F7E10C88
:10444000F11E431F561FC91FD01D7EF4703311F497
:104450008A95E6CFE894015030F0080F0AF400275F
:10446000021708F4202F2395022F7A3328F079E3DE
:104470007D932A95E9F710C07D932A9589F60694D5
:1044800097956795379517951794E118F10A430B9F
:10449000560BC90BD00998F023957E9173957A330A
:1044A00008F070E37C932013B8F77E9170617D93E0
:1044B00030F0839571E37D9370E32A95E1F7112441
:1044C000EF90FF900F911F91CF91DF91992787FD7A
:1044D00090950895FC010590615070400110D8F747
:1044E000809590958E0F9F1F0895FC01615070403C
:1044F00001900110D8F7809590958E0F9F1F089519
:104500000F931F93CF93DF93182F092FEB018B810C
:1045100081FD09C01FEF0FEF812F902FDF91CF9109
:104520001F910F91089582FF14C02E813F818C81CD
:104530009D81281739073CF4E881F981CF01019664
:104540009983888310838E819F8101969F838E83B8
:10455000E3CFE885F985812F0995892BA1F3DACF7F
:10456000B0E0A0E0E6EBF2E20C94A41FAE014B5FDA
:104570005F4FFA0161917191AF0180916403909155
:1045800065030E94ED1BE2E00C94C01FFA01AA270C
:10459000283051F1203181F1E8946F936E7F6E5F86
:1045A0007F4F8F4F9F4FAF4FB1E03ED0B4E03CD034
:1045B000670F781F891F9A1FA11D680F791F8A1F17
:1045C000911DA11D6A0F711D811D911DA11D20D07E
:1045D00009F468943F912AE0269F11243019305D38
:1045E0003193DEF6CF010895462F4770405D419329
:1045F000B3E00FD0C9F7F6CF462F4F70405D4A3376
:1046000018F0495D31FD4052419302D0A9F7EACF3D
:10461000B4E0A6959795879577956795BA95C9F76C
:1046200000976105710508959B01AC010A2E06945F
:104630005795479537952795BA95C9F7620F731F18
:0C464000841F951FA01D0895F894FFCF63
:10464C0000000002000000006F1000000000537416
:10465C006172742E2043757272656E74206C69677A
:10466C0068742076616C75653A202566007B227033
:10467C00223A2025647D0A007B2274223A252E31B1
:10468C00662C2270223A2025640A7D003120313AB2
:10469C00252E326620323A252E326620333A252ECC
:1046AC00326620343A252E326620353A252E326673
:1046BC0020363A252E326620373A252E326620389F
:1046CC003A252E326620393A252E32662031303A80
:0646DC00252E32660A00E3
:00000001FF
